{
  "contractName": "TWN",
  "abi": [
    {
      "constant": true,
      "inputs": [],
      "name": "totalSupply",
      "outputs": [
        {
          "name": "",
          "type": "uint256"
        }
      ],
      "payable": false,
      "stateMutability": "view",
      "type": "function"
    },
    {
      "constant": true,
      "inputs": [],
      "name": "totalFrozen",
      "outputs": [
        {
          "name": "",
          "type": "uint256"
        }
      ],
      "payable": false,
      "stateMutability": "view",
      "type": "function"
    },
    {
      "constant": true,
      "inputs": [],
      "name": "MIN_FREEZE",
      "outputs": [
        {
          "name": "",
          "type": "uint256"
        }
      ],
      "payable": false,
      "stateMutability": "view",
      "type": "function"
    },
    {
      "constant": true,
      "inputs": [],
      "name": "difficultyGroup",
      "outputs": [
        {
          "name": "",
          "type": "uint256"
        }
      ],
      "payable": false,
      "stateMutability": "view",
      "type": "function"
    },
    {
      "constant": true,
      "inputs": [
        {
          "name": "owner",
          "type": "address"
        }
      ],
      "name": "balanceOf",
      "outputs": [
        {
          "name": "",
          "type": "uint256"
        }
      ],
      "payable": false,
      "stateMutability": "view",
      "type": "function"
    },
    {
      "constant": true,
      "inputs": [],
      "name": "owner",
      "outputs": [
        {
          "name": "",
          "type": "address"
        }
      ],
      "payable": false,
      "stateMutability": "view",
      "type": "function"
    },
    {
      "constant": true,
      "inputs": [],
      "name": "difficultyRelease",
      "outputs": [
        {
          "name": "",
          "type": "uint256"
        }
      ],
      "payable": false,
      "stateMutability": "view",
      "type": "function"
    },
    {
      "constant": false,
      "inputs": [
        {
          "name": "spender",
          "type": "address"
        },
        {
          "name": "subtractedValue",
          "type": "uint256"
        }
      ],
      "name": "decreaseAllowance",
      "outputs": [
        {
          "name": "",
          "type": "bool"
        }
      ],
      "payable": false,
      "stateMutability": "nonpayable",
      "type": "function"
    },
    {
      "constant": true,
      "inputs": [
        {
          "name": "",
          "type": "address"
        }
      ],
      "name": "playersWithFrozenTokens",
      "outputs": [
        {
          "name": "",
          "type": "uint256"
        }
      ],
      "payable": false,
      "stateMutability": "view",
      "type": "function"
    },
    {
      "constant": true,
      "inputs": [
        {
          "name": "owner",
          "type": "address"
        }
      ],
      "name": "balanceOfFrozen",
      "outputs": [
        {
          "name": "",
          "type": "uint256"
        }
      ],
      "payable": false,
      "stateMutability": "view",
      "type": "function"
    },
    {
      "constant": true,
      "inputs": [],
      "name": "tokensInPlay",
      "outputs": [
        {
          "name": "",
          "type": "uint256"
        }
      ],
      "payable": false,
      "stateMutability": "view",
      "type": "function"
    },
    {
      "constant": true,
      "inputs": [],
      "name": "tokenBanker",
      "outputs": [
        {
          "name": "",
          "type": "address"
        }
      ],
      "payable": false,
      "stateMutability": "view",
      "type": "function"
    },
    {
      "constant": true,
      "inputs": [
        {
          "name": "owner",
          "type": "address"
        },
        {
          "name": "spender",
          "type": "address"
        }
      ],
      "name": "allowance",
      "outputs": [
        {
          "name": "",
          "type": "uint256"
        }
      ],
      "payable": false,
      "stateMutability": "view",
      "type": "function"
    },
    {
      "inputs": [],
      "payable": false,
      "stateMutability": "nonpayable",
      "type": "constructor"
    },
    {
      "anonymous": false,
      "inputs": [
        {
          "indexed": true,
          "name": "from",
          "type": "address"
        },
        {
          "indexed": true,
          "name": "to",
          "type": "address"
        },
        {
          "indexed": false,
          "name": "value",
          "type": "uint256"
        }
      ],
      "name": "Transfer",
      "type": "event"
    },
    {
      "anonymous": false,
      "inputs": [
        {
          "indexed": true,
          "name": "owner",
          "type": "address"
        },
        {
          "indexed": true,
          "name": "spender",
          "type": "address"
        },
        {
          "indexed": false,
          "name": "value",
          "type": "uint256"
        }
      ],
      "name": "Approval",
      "type": "event"
    },
    {
      "constant": true,
      "inputs": [],
      "name": "name",
      "outputs": [
        {
          "name": "",
          "type": "string"
        }
      ],
      "payable": false,
      "stateMutability": "view",
      "type": "function"
    },
    {
      "constant": true,
      "inputs": [],
      "name": "symbol",
      "outputs": [
        {
          "name": "",
          "type": "string"
        }
      ],
      "payable": false,
      "stateMutability": "view",
      "type": "function"
    },
    {
      "constant": true,
      "inputs": [],
      "name": "decimals",
      "outputs": [
        {
          "name": "",
          "type": "uint8"
        }
      ],
      "payable": false,
      "stateMutability": "view",
      "type": "function"
    },
    {
      "constant": true,
      "inputs": [],
      "name": "getCurrentMiningDifficulty",
      "outputs": [
        {
          "name": "",
          "type": "uint256"
        }
      ],
      "payable": false,
      "stateMutability": "view",
      "type": "function"
    },
    {
      "constant": true,
      "inputs": [
        {
          "name": "tokens",
          "type": "uint256"
        }
      ],
      "name": "debug_testDificulty",
      "outputs": [
        {
          "name": "_difficultyRelease",
          "type": "uint256"
        },
        {
          "name": "_difficultyGroup",
          "type": "uint256"
        }
      ],
      "payable": false,
      "stateMutability": "view",
      "type": "function"
    },
    {
      "constant": false,
      "inputs": [
        {
          "name": "to",
          "type": "address"
        },
        {
          "name": "valueSpent",
          "type": "uint256"
        }
      ],
      "name": "initTransfer",
      "outputs": [
        {
          "name": "",
          "type": "bool"
        }
      ],
      "payable": false,
      "stateMutability": "nonpayable",
      "type": "function"
    },
    {
      "constant": true,
      "inputs": [
        {
          "name": "_amnt",
          "type": "uint256"
        }
      ],
      "name": "debug_processPlayerPlay",
      "outputs": [
        {
          "name": "_tokens",
          "type": "uint256"
        }
      ],
      "payable": false,
      "stateMutability": "view",
      "type": "function"
    },
    {
      "constant": true,
      "inputs": [],
      "name": "playersWithFrozenTokensLen",
      "outputs": [
        {
          "name": "",
          "type": "uint256"
        }
      ],
      "payable": false,
      "stateMutability": "view",
      "type": "function"
    },
    {
      "constant": true,
      "inputs": [
        {
          "name": "_c",
          "type": "uint256"
        }
      ],
      "name": "tokensFrozenByplayersWithFrozenTokensAddressesPos",
      "outputs": [
        {
          "name": "_amnt",
          "type": "uint256"
        },
        {
          "name": "_player",
          "type": "address"
        }
      ],
      "payable": false,
      "stateMutability": "view",
      "type": "function"
    },
    {
      "constant": false,
      "inputs": [
        {
          "name": "_amnt",
          "type": "uint256"
        }
      ],
      "name": "freeze",
      "outputs": [],
      "payable": false,
      "stateMutability": "nonpayable",
      "type": "function"
    },
    {
      "constant": false,
      "inputs": [
        {
          "name": "_amnt",
          "type": "uint256"
        }
      ],
      "name": "unfreeze",
      "outputs": [],
      "payable": false,
      "stateMutability": "nonpayable",
      "type": "function"
    },
    {
      "constant": true,
      "inputs": [],
      "name": "pendingUnfreezesLen",
      "outputs": [
        {
          "name": "",
          "type": "uint256"
        }
      ],
      "payable": false,
      "stateMutability": "view",
      "type": "function"
    },
    {
      "constant": true,
      "inputs": [
        {
          "name": "_pos",
          "type": "uint256"
        }
      ],
      "name": "getPendingUnfreezesAtPos",
      "outputs": [
        {
          "name": "_player",
          "type": "address"
        },
        {
          "name": "_amnt",
          "type": "uint256"
        },
        {
          "name": "_startTS",
          "type": "uint256"
        }
      ],
      "payable": false,
      "stateMutability": "view",
      "type": "function"
    },
    {
      "constant": false,
      "inputs": [
        {
          "name": "_pos",
          "type": "uint256"
        }
      ],
      "name": "pendingUnfreezesAtPos",
      "outputs": [
        {
          "name": "_player",
          "type": "address"
        },
        {
          "name": "_amnt",
          "type": "uint256"
        },
        {
          "name": "_startTS",
          "type": "uint256"
        }
      ],
      "payable": false,
      "stateMutability": "nonpayable",
      "type": "function"
    },
    {
      "constant": false,
      "inputs": [
        {
          "name": "value",
          "type": "uint256"
        }
      ],
      "name": "burn",
      "outputs": [],
      "payable": false,
      "stateMutability": "nonpayable",
      "type": "function"
    },
    {
      "constant": false,
      "inputs": [
        {
          "name": "from",
          "type": "address"
        },
        {
          "name": "value",
          "type": "uint256"
        }
      ],
      "name": "burnFrom",
      "outputs": [],
      "payable": false,
      "stateMutability": "nonpayable",
      "type": "function"
    },
    {
      "constant": false,
      "inputs": [
        {
          "name": "to",
          "type": "address"
        },
        {
          "name": "value",
          "type": "uint256"
        }
      ],
      "name": "transfer",
      "outputs": [
        {
          "name": "",
          "type": "bool"
        }
      ],
      "payable": false,
      "stateMutability": "nonpayable",
      "type": "function"
    },
    {
      "constant": false,
      "inputs": [
        {
          "name": "spender",
          "type": "address"
        },
        {
          "name": "value",
          "type": "uint256"
        }
      ],
      "name": "approve",
      "outputs": [
        {
          "name": "",
          "type": "bool"
        }
      ],
      "payable": false,
      "stateMutability": "nonpayable",
      "type": "function"
    },
    {
      "constant": false,
      "inputs": [
        {
          "name": "spender",
          "type": "address"
        },
        {
          "name": "addedValue",
          "type": "uint256"
        }
      ],
      "name": "increaseAllowance",
      "outputs": [
        {
          "name": "",
          "type": "bool"
        }
      ],
      "payable": false,
      "stateMutability": "nonpayable",
      "type": "function"
    },
    {
      "constant": false,
      "inputs": [
        {
          "name": "from",
          "type": "address"
        },
        {
          "name": "to",
          "type": "address"
        },
        {
          "name": "value",
          "type": "uint256"
        }
      ],
      "name": "transferFrom",
      "outputs": [
        {
          "name": "",
          "type": "bool"
        }
      ],
      "payable": false,
      "stateMutability": "nonpayable",
      "type": "function"
    },
    {
      "constant": false,
      "inputs": [
        {
          "name": "_addr",
          "type": "address"
        }
      ],
      "name": "updateTokenBanker",
      "outputs": [],
      "payable": false,
      "stateMutability": "nonpayable",
      "type": "function"
    }
  ],
  "bytecode": "0x6080604052620f42406004556001600a556001600b553480156200002257600080fd5b50d380156200003057600080fd5b50d280156200003e57600080fd5b5033600d60006101000a81548173ffffffffffffffffffffffffffffffffffffffff021916908373ffffffffffffffffffffffffffffffffffffffff160217905550600d60009054906101000a900473ffffffffffffffffffffffffffffffffffffffff16600e60006101000a81548173ffffffffffffffffffffffffffffffffffffffff021916908373ffffffffffffffffffffffffffffffffffffffff1602179055506040805190810160405280600b81526020017f54726f6e57696e2e6170700000000000000000000000000000000000000000008152506005908051906020019062000130929190620003fa565b506040805190810160405280600381526020017f54574e0000000000000000000000000000000000000000000000000000000000815250600690805190602001906200017e929190620003fa565b506006600760006101000a81548160ff021916908360ff16021790555065886c98b76000600881905550620001c53360085462000261640100000000026401000000009004565b631a39de00600f600060018152602001908152602001600020600060018152602001908152602001600020819055506011600090806001815401808255809150509060018203906000526020600020016000909192909190916101000a81548173ffffffffffffffffffffffffffffffffffffffff021916908373ffffffffffffffffffffffffffffffffffffffff16021790555050620004a9565b600073ffffffffffffffffffffffffffffffffffffffff168273ffffffffffffffffffffffffffffffffffffffff16141515156200029e57600080fd5b620002c381600354620003d86401000000000262002a92179091906401000000009004565b6003819055506200032b81600160008573ffffffffffffffffffffffffffffffffffffffff1673ffffffffffffffffffffffffffffffffffffffff16815260200190815260200160002054620003d86401000000000262002a92179091906401000000009004565b600160008473ffffffffffffffffffffffffffffffffffffffff1673ffffffffffffffffffffffffffffffffffffffff168152602001908152602001600020819055508173ffffffffffffffffffffffffffffffffffffffff16600073ffffffffffffffffffffffffffffffffffffffff167fddf252ad1be2c89b69c2b068fc378daa952ba7f163c4a11628f55a4df523b3ef836040518082815260200191505060405180910390a35050565b6000808284019050838110151515620003f057600080fd5b8091505092915050565b828054600181600116156101000203166002900490600052602060002090601f016020900481019282601f106200043d57805160ff19168380011785556200046e565b828001600101855582156200046e579182015b828111156200046d57825182559160200191906001019062000450565b5b5090506200047d919062000481565b5090565b620004a691905b80821115620004a257600081600090555060010162000488565b5090565b90565b61326080620004b96000396000f3006080604052600436106101ac576000357c0100000000000000000000000000000000000000000000000000000000900463ffffffff16806306fdde03146101b1578063095ea7b31461025b5780630c9020ad146102da57806318160ddd1461031f5780631e7f87bc1461036457806323b872dd146103a95780632a82334414610448578063313ce567146104dd57806339509351146105285780633c717ab0146105a757806342966c681461063c5780634b66fdff146106835780634c67fd28146106c85780634d910e841461070d5780636623fc461461076a57806370a08231146107b157806379cc67901461082257806381b7be75146108895780638da5cb5b146108eb57806395d89b411461095c5780639b042fb614610a065780639c3db30914610a4b578063a457c2d714610a90578063a627d95814610b0f578063a6dc84f014610b80578063a9059cbb14610bf1578063afa9a86e14610c70578063b35fd67814610cb5578063b9931a7a14610d34578063bb0db8d414610da5578063d7a78db814610e00578063dd62ed3e14610e47578063e5474d6c14610ed8578063ec90662614610f1d575b600080fd5b3480156101bd57600080fd5b50d380156101ca57600080fd5b50d280156101d757600080fd5b506101e0610fab565b6040518080602001828103825283818151815260200191508051906020019080838360005b83811015610220578082015181840152602081019050610205565b50505050905090810190601f16801561024d5780820380516001836020036101000a031916815260200191505b509250505060405180910390f35b34801561026757600080fd5b50d3801561027457600080fd5b50d2801561028157600080fd5b506102c0600480360381019080803573ffffffffffffffffffffffffffffffffffffffff1690602001909291908035906020019092919050505061104d565b604051808215151515815260200191505060405180910390f35b3480156102e657600080fd5b50d380156102f357600080fd5b50d2801561030057600080fd5b50610309611156565b6040518082815260200191505060405180910390f35b34801561032b57600080fd5b50d3801561033857600080fd5b50d2801561034557600080fd5b5061034e611163565b6040518082815260200191505060405180910390f35b34801561037057600080fd5b50d3801561037d57600080fd5b50d2801561038a57600080fd5b5061039361116d565b6040518082815260200191505060405180910390f35b3480156103b557600080fd5b50d380156103c257600080fd5b50d280156103cf57600080fd5b5061042e600480360381019080803573ffffffffffffffffffffffffffffffffffffffff169060200190929190803573ffffffffffffffffffffffffffffffffffffffff16906020019092919080359060200190929190505050611173565b604051808215151515815260200191505060405180910390f35b34801561045457600080fd5b50d3801561046157600080fd5b50d2801561046e57600080fd5b5061048d6004803603810190808035906020019092919050505061127e565b604051808473ffffffffffffffffffffffffffffffffffffffff1673ffffffffffffffffffffffffffffffffffffffff168152602001838152602001828152602001935050505060405180910390f35b3480156104e957600080fd5b50d380156104f657600080fd5b50d2801561050357600080fd5b5061050c611598565b604051808260ff1660ff16815260200191505060405180910390f35b34801561053457600080fd5b50d3801561054157600080fd5b50d2801561054e57600080fd5b5061058d600480360381019080803573ffffffffffffffffffffffffffffffffffffffff169060200190929190803590602001909291905050506115af565b604051808215151515815260200191505060405180910390f35b3480156105b357600080fd5b50d380156105c057600080fd5b50d280156105cd57600080fd5b506105ec600480360381019080803590602001909291905050506116d3565b604051808473ffffffffffffffffffffffffffffffffffffffff1673ffffffffffffffffffffffffffffffffffffffff168152602001838152602001828152602001935050505060405180910390f35b34801561064857600080fd5b50d3801561065557600080fd5b50d2801561066257600080fd5b50610681600480360381019080803590602001909291905050506117c4565b005b34801561068f57600080fd5b50d3801561069c57600080fd5b50d280156106a957600080fd5b506106b26118c7565b6040518082815260200191505060405180910390f35b3480156106d457600080fd5b50d380156106e157600080fd5b50d280156106ee57600080fd5b506106f76118cd565b6040518082815260200191505060405180910390f35b34801561071957600080fd5b50d3801561072657600080fd5b50d2801561073357600080fd5b50610768600480360381019080803573ffffffffffffffffffffffffffffffffffffffff1690602001909291905050506118d3565b005b34801561077657600080fd5b50d3801561078357600080fd5b50d2801561079057600080fd5b506107af60048036038101908080359060200190929190505050611973565b005b3480156107bd57600080fd5b50d380156107ca57600080fd5b50d280156107d757600080fd5b5061080c600480360381019080803573ffffffffffffffffffffffffffffffffffffffff169060200190929190505050611ae9565b6040518082815260200191505060405180910390f35b34801561082e57600080fd5b50d3801561083b57600080fd5b50d2801561084857600080fd5b50610887600480360381019080803573ffffffffffffffffffffffffffffffffffffffff16906020019092919080359060200190929190505050611b32565b005b34801561089557600080fd5b50d380156108a257600080fd5b50d280156108af57600080fd5b506108ce60048036038101908080359060200190929190505050611c36565b604051808381526020018281526020019250505060405180910390f35b3480156108f757600080fd5b50d3801561090457600080fd5b50d2801561091157600080fd5b5061091a611cdb565b604051808273ffffffffffffffffffffffffffffffffffffffff1673ffffffffffffffffffffffffffffffffffffffff16815260200191505060405180910390f35b34801561096857600080fd5b50d3801561097557600080fd5b50d2801561098257600080fd5b5061098b611d01565b6040518080602001828103825283818151815260200191508051906020019080838360005b838110156109cb5780820151818401526020810190506109b0565b50505050905090810190601f1680156109f85780820380516001836020036101000a031916815260200191505b509250505060405180910390f35b348015610a1257600080fd5b50d38015610a1f57600080fd5b50d28015610a2c57600080fd5b50610a35611da3565b6040518082815260200191505060405180910390f35b348015610a5757600080fd5b50d38015610a6457600080fd5b50d28015610a7157600080fd5b50610a7a611da9565b6040518082815260200191505060405180910390f35b348015610a9c57600080fd5b50d38015610aa957600080fd5b50d28015610ab657600080fd5b50610af5600480360381019080803573ffffffffffffffffffffffffffffffffffffffff16906020019092919080359060200190929190505050611dd9565b604051808215151515815260200191505060405180910390f35b348015610b1b57600080fd5b50d38015610b2857600080fd5b50d28015610b3557600080fd5b50610b6a600480360381019080803573ffffffffffffffffffffffffffffffffffffffff169060200190929190505050612010565b6040518082815260200191505060405180910390f35b348015610b8c57600080fd5b50d38015610b9957600080fd5b50d28015610ba657600080fd5b50610bdb600480360381019080803573ffffffffffffffffffffffffffffffffffffffff169060200190929190505050612028565b6040518082815260200191505060405180910390f35b348015610bfd57600080fd5b50d38015610c0a57600080fd5b50d28015610c1757600080fd5b50610c56600480360381019080803573ffffffffffffffffffffffffffffffffffffffff16906020019092919080359060200190929190505050612070565b604051808215151515815260200191505060405180910390f35b348015610c7c57600080fd5b50d38015610c8957600080fd5b50d28015610c9657600080fd5b50610c9f612179565b6040518082815260200191505060405180910390f35b348015610cc157600080fd5b50d38015610cce57600080fd5b50d28015610cdb57600080fd5b50610d1a600480360381019080803573ffffffffffffffffffffffffffffffffffffffff1690602001909291908035906020019092919050505061217f565b604051808215151515815260200191505060405180910390f35b348015610d4057600080fd5b50d38015610d4d57600080fd5b50d28015610d5a57600080fd5b50610d636122f3565b604051808273ffffffffffffffffffffffffffffffffffffffff1673ffffffffffffffffffffffffffffffffffffffff16815260200191505060405180910390f35b348015610db157600080fd5b50d38015610dbe57600080fd5b50d28015610dcb57600080fd5b50610dea60048036038101908080359060200190929190505050612319565b6040518082815260200191505060405180910390f35b348015610e0c57600080fd5b50d38015610e1957600080fd5b50d28015610e2657600080fd5b50610e4560048036038101908080359060200190929190505050612356565b005b348015610e5357600080fd5b50d38015610e6057600080fd5b50d28015610e6d57600080fd5b50610ec2600480360381019080803573ffffffffffffffffffffffffffffffffffffffff169060200190929190803573ffffffffffffffffffffffffffffffffffffffff1690602001909291905050506125e8565b6040518082815260200191505060405180910390f35b348015610ee457600080fd5b50d38015610ef157600080fd5b50d28015610efe57600080fd5b50610f0761278b565b6040518082815260200191505060405180910390f35b348015610f2957600080fd5b50d38015610f3657600080fd5b50d28015610f4357600080fd5b50610f6260048036038101908080359060200190929190505050612798565b604051808381526020018273ffffffffffffffffffffffffffffffffffffffff1673ffffffffffffffffffffffffffffffffffffffff1681526020019250505060405180910390f35b606060058054600181600116156101000203166002900480601f0160208091040260200160405190810160405280929190818152602001828054600181600116156101000203166002900480156110435780601f1061101857610100808354040283529160200191611043565b820191906000526020600020905b81548152906001019060200180831161102657829003601f168201915b5050505050905090565b60006110a86000808573ffffffffffffffffffffffffffffffffffffffff1673ffffffffffffffffffffffffffffffffffffffff1681526020019081526020016000205461109a85611ae9565b61281d90919063ffffffff16565b8211151515611145576040517f08c379a00000000000000000000000000000000000000000000000000000000081526004018080602001828103825260318152602001807f546f6f206d616e7920746f6b656e732066726f7a656e20746f20636f6d706c6581526020017f7465207468697320617070726f76616c2100000000000000000000000000000081525060400191505060405180910390fd5b61114f838361283e565b5092915050565b6000601080549050905090565b6000600354905090565b600c5481565b60006111ce6000808673ffffffffffffffffffffffffffffffffffffffff1673ffffffffffffffffffffffffffffffffffffffff168152602001908152602001600020546111c086611ae9565b61281d90919063ffffffff16565b821115151561126b576040517f08c379a000000000000000000000000000000000000000000000000000000000815260040180806020018281038252602c8152602001807f546f6f206d616e7920746f6b656e732066726f7a656e20746f20636f6d706c6581526020017f7465207472616e7366657221000000000000000000000000000000000000000081525060400191505060405180910390fd5b61127684848461296b565b509392505050565b6000806000600d60009054906101000a900473ffffffffffffffffffffffffffffffffffffffff1673ffffffffffffffffffffffffffffffffffffffff163373ffffffffffffffffffffffffffffffffffffffff161415156112df57600080fd5b6010848154811015156112ee57fe5b906000526020600020906003020160000160009054906101000a900473ffffffffffffffffffffffffffffffffffffffff16925060108481548110151561133157fe5b9060005260206000209060030201600101549150611396826000808673ffffffffffffffffffffffffffffffffffffffff1673ffffffffffffffffffffffffffffffffffffffff1681526020019081526020016000205461281d90919063ffffffff16565b6000808573ffffffffffffffffffffffffffffffffffffffff1673ffffffffffffffffffffffffffffffffffffffff168152602001908152602001600020819055506113ed82600c5461281d90919063ffffffff16565b600c8190555060108481548110151561140257fe5b9060005260206000209060030201600201549050601060016010805490500381548110151561142d57fe5b9060005260206000209060030201600080820160006101000a81549073ffffffffffffffffffffffffffffffffffffffff0219169055600182016000905560028201600090555050601080548091906001900361148a91906131ac565b5060008060008573ffffffffffffffffffffffffffffffffffffffff1673ffffffffffffffffffffffffffffffffffffffff168152602001908152602001600020541415611591576011601260008573ffffffffffffffffffffffffffffffffffffffff1673ffffffffffffffffffffffffffffffffffffffff1681526020019081526020016000205481548110151561152057fe5b9060005260206000200160006101000a81549073ffffffffffffffffffffffffffffffffffffffff0219169055601260008473ffffffffffffffffffffffffffffffffffffffff1673ffffffffffffffffffffffffffffffffffffffff168152602001908152602001600020600090555b9193909250565b6000600760009054906101000a900460ff16905090565b600061160a6000803373ffffffffffffffffffffffffffffffffffffffff1673ffffffffffffffffffffffffffffffffffffffff168152602001908152602001600020546115fc33611ae9565b61281d90919063ffffffff16565b61162661161733866125e8565b84612a9290919063ffffffff16565b111515156116c2576040517f08c379a00000000000000000000000000000000000000000000000000000000081526004018080602001828103825260318152602001807f546f6f206d616e7920746f6b656e732066726f7a656e20746f20636f6d706c6581526020017f7465207468697320617070726f76616c2100000000000000000000000000000081525060400191505060405180910390fd5b6116cc8383612ab3565b5092915050565b6000806000600d60009054906101000a900473ffffffffffffffffffffffffffffffffffffffff1673ffffffffffffffffffffffffffffffffffffffff163373ffffffffffffffffffffffffffffffffffffffff1614151561173457600080fd5b60108481548110151561174357fe5b906000526020600020906003020160000160009054906101000a900473ffffffffffffffffffffffffffffffffffffffff16925060108481548110151561178657fe5b90600052602060002090600302016001015491506010848154811015156117a957fe5b90600052602060002090600302016002015490509193909250565b61181d6000803373ffffffffffffffffffffffffffffffffffffffff1673ffffffffffffffffffffffffffffffffffffffff1681526020019081526020016000205461180f33611ae9565b61281d90919063ffffffff16565b81111515156118ba576040517f08c379a00000000000000000000000000000000000000000000000000000000081526004018080602001828103825260288152602001807f546f6f206d616e7920746f6b656e732066726f7a656e20746f20636f6d706c6581526020017f7465206275726e2100000000000000000000000000000000000000000000000081525060400191505060405180910390fd5b6118c43382612cea565b50565b60045481565b600b5481565b600d60009054906101000a900473ffffffffffffffffffffffffffffffffffffffff1673ffffffffffffffffffffffffffffffffffffffff163373ffffffffffffffffffffffffffffffffffffffff1614151561192f57600080fd5b80600e60006101000a81548173ffffffffffffffffffffffffffffffffffffffff021916908373ffffffffffffffffffffffffffffffffffffffff16021790555050565b806000803373ffffffffffffffffffffffffffffffffffffffff1673ffffffffffffffffffffffffffffffffffffffff1681526020019081526020016000205410151515611a29576040517f08c379a00000000000000000000000000000000000000000000000000000000081526004018080602001828103825260198152602001807f4e6f7420656e6f75676820746f6b656e732066726f7a656e210000000000000081525060200191505060405180910390fd5b60106060604051908101604052803373ffffffffffffffffffffffffffffffffffffffff168152602001838152602001428152509080600181540180825580915050906001820390600052602060002090600302016000909192909190915060008201518160000160006101000a81548173ffffffffffffffffffffffffffffffffffffffff021916908373ffffffffffffffffffffffffffffffffffffffff160217905550602082015181600101556040820151816002015550505050565b6000600160008373ffffffffffffffffffffffffffffffffffffffff1673ffffffffffffffffffffffffffffffffffffffff168152602001908152602001600020549050919050565b611b8b6000808473ffffffffffffffffffffffffffffffffffffffff1673ffffffffffffffffffffffffffffffffffffffff16815260200190815260200160002054611b7d84611ae9565b61281d90919063ffffffff16565b8111151515611c28576040517f08c379a00000000000000000000000000000000000000000000000000000000081526004018080602001828103825260288152602001807f546f6f206d616e7920746f6b656e732066726f7a656e20746f20636f6d706c6581526020017f7465206275726e2100000000000000000000000000000000000000000000000081525060400191505060405180910390fd5b611c328282612e40565b5050565b60008060016509184e72a00084811515611c4c57fe5b040191506001821115611cb8576001611cb064e8d4a51000611ca2611c936509184e72a000611c8560018961281d90919063ffffffff16565b612f5d90919063ffffffff16565b8761281d90919063ffffffff16565b612f9b90919063ffffffff16565b019050611cd6565b6001611cd264e8d4a5100085612f9b90919063ffffffff16565b0190505b915091565b600d60009054906101000a900473ffffffffffffffffffffffffffffffffffffffff1681565b606060068054600181600116156101000203166002900480601f016020809104026020016040519081016040528092919081815260200182805460018160011615610100020316600290048015611d995780601f10611d6e57610100808354040283529160200191611d99565b820191906000526020600020905b815481529060010190602001808311611d7c57829003601f168201915b5050505050905090565b600a5481565b6000600f6000600a5481526020019081526020016000206000600b54815260200190815260200160002054905090565b60008073ffffffffffffffffffffffffffffffffffffffff168373ffffffffffffffffffffffffffffffffffffffff1614151515611e1657600080fd5b611ea582600260003373ffffffffffffffffffffffffffffffffffffffff1673ffffffffffffffffffffffffffffffffffffffff16815260200190815260200160002060008673ffffffffffffffffffffffffffffffffffffffff1673ffffffffffffffffffffffffffffffffffffffff1681526020019081526020016000205461281d90919063ffffffff16565b600260003373ffffffffffffffffffffffffffffffffffffffff1673ffffffffffffffffffffffffffffffffffffffff16815260200190815260200160002060008573ffffffffffffffffffffffffffffffffffffffff1673ffffffffffffffffffffffffffffffffffffffff168152602001908152602001600020819055508273ffffffffffffffffffffffffffffffffffffffff163373ffffffffffffffffffffffffffffffffffffffff167f8c5be1e5ebec7d5bd14f71427d1e84f3dd0314c0f7b2291e5b200ac8c7c3b925600260003373ffffffffffffffffffffffffffffffffffffffff1673ffffffffffffffffffffffffffffffffffffffff16815260200190815260200160002060008773ffffffffffffffffffffffffffffffffffffffff1673ffffffffffffffffffffffffffffffffffffffff168152602001908152602001600020546040518082815260200191505060405180910390a36001905092915050565b60126020528060005260406000206000915090505481565b60008060008373ffffffffffffffffffffffffffffffffffffffff1673ffffffffffffffffffffffffffffffffffffffff168152602001908152602001600020549050919050565b60006120cb6000803373ffffffffffffffffffffffffffffffffffffffff1673ffffffffffffffffffffffffffffffffffffffff168152602001908152602001600020546120bd33611ae9565b61281d90919063ffffffff16565b8211151515612168576040517f08c379a000000000000000000000000000000000000000000000000000000000815260040180806020018281038252602c8152602001807f546f6f206d616e7920746f6b656e732066726f7a656e20746f20636f6d706c6581526020017f7465207472616e7366657221000000000000000000000000000000000000000081525060400191505060405180910390fd5b6121728383612fc5565b5092915050565b60095481565b600080600e60009054906101000a900473ffffffffffffffffffffffffffffffffffffffff1673ffffffffffffffffffffffffffffffffffffffff163373ffffffffffffffffffffffffffffffffffffffff161415156121de57600080fd5b61220d6121e9611da9565b6121ff620f424086612f5d90919063ffffffff16565b612f9b90919063ffffffff16565b905061222481600954612a9290919063ffffffff16565b60098190555060016509184e72a00060095481151561223f57fe5b0401600a819055506001600a5411156122b95760016122ad64e8d4a5100061229f61228e6509184e72a0006122806001600a5461281d90919063ffffffff16565b612f5d90919063ffffffff16565b60095461281d90919063ffffffff16565b612f9b90919063ffffffff16565b01600b819055506122dd565b60016122d564e8d4a51000600954612f9b90919063ffffffff16565b01600b819055505b6122e8338583612fdc565b600191505092915050565b600e60009054906101000a900473ffffffffffffffffffffffffffffffffffffffff1681565b600080612324611da9565b905061234e81612340620f424086612f5d90919063ffffffff16565b612f9b90919063ffffffff16565b915050919050565b6000600454821015151561236957600080fd5b61237233611ae9565b90506123c56000803373ffffffffffffffffffffffffffffffffffffffff1673ffffffffffffffffffffffffffffffffffffffff1681526020019081526020016000205483612a9290919063ffffffff16565b8111151561243b576040517f08c379a00000000000000000000000000000000000000000000000000000000081526004018080602001828103825260128152602001807f4e6f7420656e6f75676820746f6b656e7321000000000000000000000000000081525060200191505060405180910390fd5b61248c826000803373ffffffffffffffffffffffffffffffffffffffff1673ffffffffffffffffffffffffffffffffffffffff16815260200190815260200160002054612a9290919063ffffffff16565b6000803373ffffffffffffffffffffffffffffffffffffffff1673ffffffffffffffffffffffffffffffffffffffff168152602001908152602001600020819055506124e382600c54612a9290919063ffffffff16565b600c819055506000601260003373ffffffffffffffffffffffffffffffffffffffff1673ffffffffffffffffffffffffffffffffffffffff1681526020019081526020016000205414156125e45760113390806001815401808255809150509060018203906000526020600020016000909192909190916101000a81548173ffffffffffffffffffffffffffffffffffffffff021916908373ffffffffffffffffffffffffffffffffffffffff16021790555050600160118054905003601260003373ffffffffffffffffffffffffffffffffffffffff1673ffffffffffffffffffffffffffffffffffffffff168152602001908152602001600020819055505b5050565b6000600260008473ffffffffffffffffffffffffffffffffffffffff1673ffffffffffffffffffffffffffffffffffffffff16815260200190815260200160002060008373ffffffffffffffffffffffffffffffffffffffff1673ffffffffffffffffffffffffffffffffffffffff168152602001908152602001600020546000808573ffffffffffffffffffffffffffffffffffffffff1673ffffffffffffffffffffffffffffffffffffffff1681526020019081526020016000205411156126b55760009050612785565b6127826000808573ffffffffffffffffffffffffffffffffffffffff1673ffffffffffffffffffffffffffffffffffffffff16815260200190815260200160002054600260008673ffffffffffffffffffffffffffffffffffffffff1673ffffffffffffffffffffffffffffffffffffffff16815260200190815260200160002060008573ffffffffffffffffffffffffffffffffffffffff1673ffffffffffffffffffffffffffffffffffffffff1681526020019081526020016000205461281d90919063ffffffff16565b90505b92915050565b6000601180549050905090565b6000806011838154811015156127aa57fe5b9060005260206000200160009054906101000a900473ffffffffffffffffffffffffffffffffffffffff1690506000808273ffffffffffffffffffffffffffffffffffffffff1673ffffffffffffffffffffffffffffffffffffffff168152602001908152602001600020549150915091565b60008083831115151561282f57600080fd5b82840390508091505092915050565b60008073ffffffffffffffffffffffffffffffffffffffff168373ffffffffffffffffffffffffffffffffffffffff161415151561287b57600080fd5b81600260003373ffffffffffffffffffffffffffffffffffffffff1673ffffffffffffffffffffffffffffffffffffffff16815260200190815260200160002060008573ffffffffffffffffffffffffffffffffffffffff1673ffffffffffffffffffffffffffffffffffffffff168152602001908152602001600020819055508273ffffffffffffffffffffffffffffffffffffffff163373ffffffffffffffffffffffffffffffffffffffff167f8c5be1e5ebec7d5bd14f71427d1e84f3dd0314c0f7b2291e5b200ac8c7c3b925846040518082815260200191505060405180910390a36001905092915050565b60006129fc82600260008773ffffffffffffffffffffffffffffffffffffffff1673ffffffffffffffffffffffffffffffffffffffff16815260200190815260200160002060003373ffffffffffffffffffffffffffffffffffffffff1673ffffffffffffffffffffffffffffffffffffffff1681526020019081526020016000205461281d90919063ffffffff16565b600260008673ffffffffffffffffffffffffffffffffffffffff1673ffffffffffffffffffffffffffffffffffffffff16815260200190815260200160002060003373ffffffffffffffffffffffffffffffffffffffff1673ffffffffffffffffffffffffffffffffffffffff16815260200190815260200160002081905550612a87848484612fdc565b600190509392505050565b6000808284019050838110151515612aa957600080fd5b8091505092915050565b60008073ffffffffffffffffffffffffffffffffffffffff168373ffffffffffffffffffffffffffffffffffffffff1614151515612af057600080fd5b612b7f82600260003373ffffffffffffffffffffffffffffffffffffffff1673ffffffffffffffffffffffffffffffffffffffff16815260200190815260200160002060008673ffffffffffffffffffffffffffffffffffffffff1673ffffffffffffffffffffffffffffffffffffffff16815260200190815260200160002054612a9290919063ffffffff16565b600260003373ffffffffffffffffffffffffffffffffffffffff1673ffffffffffffffffffffffffffffffffffffffff16815260200190815260200160002060008573ffffffffffffffffffffffffffffffffffffffff1673ffffffffffffffffffffffffffffffffffffffff168152602001908152602001600020819055508273ffffffffffffffffffffffffffffffffffffffff163373ffffffffffffffffffffffffffffffffffffffff167f8c5be1e5ebec7d5bd14f71427d1e84f3dd0314c0f7b2291e5b200ac8c7c3b925600260003373ffffffffffffffffffffffffffffffffffffffff1673ffffffffffffffffffffffffffffffffffffffff16815260200190815260200160002060008773ffffffffffffffffffffffffffffffffffffffff1673ffffffffffffffffffffffffffffffffffffffff168152602001908152602001600020546040518082815260200191505060405180910390a36001905092915050565b600073ffffffffffffffffffffffffffffffffffffffff168273ffffffffffffffffffffffffffffffffffffffff1614151515612d2657600080fd5b612d3b8160035461281d90919063ffffffff16565b600381905550612d9381600160008573ffffffffffffffffffffffffffffffffffffffff1673ffffffffffffffffffffffffffffffffffffffff1681526020019081526020016000205461281d90919063ffffffff16565b600160008473ffffffffffffffffffffffffffffffffffffffff1673ffffffffffffffffffffffffffffffffffffffff16815260200190815260200160002081905550600073ffffffffffffffffffffffffffffffffffffffff168273ffffffffffffffffffffffffffffffffffffffff167fddf252ad1be2c89b69c2b068fc378daa952ba7f163c4a11628f55a4df523b3ef836040518082815260200191505060405180910390a35050565b612ecf81600260008573ffffffffffffffffffffffffffffffffffffffff1673ffffffffffffffffffffffffffffffffffffffff16815260200190815260200160002060003373ffffffffffffffffffffffffffffffffffffffff1673ffffffffffffffffffffffffffffffffffffffff1681526020019081526020016000205461281d90919063ffffffff16565b600260008473ffffffffffffffffffffffffffffffffffffffff1673ffffffffffffffffffffffffffffffffffffffff16815260200190815260200160002060003373ffffffffffffffffffffffffffffffffffffffff1673ffffffffffffffffffffffffffffffffffffffff16815260200190815260200160002081905550612f598282612cea565b5050565b6000806000841415612f725760009150612f94565b8284029050828482811515612f8357fe5b04141515612f9057600080fd5b8091505b5092915050565b600080600083111515612fad57600080fd5b8284811515612fb857fe5b0490508091505092915050565b6000612fd2338484612fdc565b6001905092915050565b600073ffffffffffffffffffffffffffffffffffffffff168273ffffffffffffffffffffffffffffffffffffffff161415151561301857600080fd5b61306a81600160008673ffffffffffffffffffffffffffffffffffffffff1673ffffffffffffffffffffffffffffffffffffffff1681526020019081526020016000205461281d90919063ffffffff16565b600160008573ffffffffffffffffffffffffffffffffffffffff1673ffffffffffffffffffffffffffffffffffffffff168152602001908152602001600020819055506130ff81600160008573ffffffffffffffffffffffffffffffffffffffff1673ffffffffffffffffffffffffffffffffffffffff16815260200190815260200160002054612a9290919063ffffffff16565b600160008473ffffffffffffffffffffffffffffffffffffffff1673ffffffffffffffffffffffffffffffffffffffff168152602001908152602001600020819055508173ffffffffffffffffffffffffffffffffffffffff168373ffffffffffffffffffffffffffffffffffffffff167fddf252ad1be2c89b69c2b068fc378daa952ba7f163c4a11628f55a4df523b3ef836040518082815260200191505060405180910390a3505050565b8154818355818111156131d9576003028160030283600052602060002091820191016131d891906131de565b5b505050565b61323191905b8082111561322d57600080820160006101000a81549073ffffffffffffffffffffffffffffffffffffffff021916905560018201600090556002820160009055506003016131e4565b5090565b905600a165627a7a72305820318b256d5d5772478d677893b32fdf892526c3a1d62b5dd333588845eb0655600029",
  "source": "pragma solidity^0.4.25;\n\n/**\n*\n*\n*  Telegram: https://t.me/TronWinApp\n*  Email: support (at) tronwin.app\n*\n* PLAY NOW: https://tronwin.app/\n*  \n* --- TRON WIN VAULT ------------------------------------------------\n*\n* \n*/\n\n\n\n\n\n\n// https://github.com/tronprotocol/tron-contracts/blob/master/contracts/utils/SafeMath.sol\n/**\n * @title SafeMath\n * @dev Math operations with safety checks that revert on error\n */\nlibrary SafeMath {\n\n    /**\n     * @dev Multiplies two numbers, reverts on overflow.\n     */\n    function mul(uint256 a, uint256 b) internal pure returns (uint256) {\n        // Gas optimization: this is cheaper than requiring 'a' not being zero, but the\n        // benefit is lost if 'b' is also tested.\n        // See: https://github.com/OpenZeppelin/openzeppelin-solidity/pull/522\n        if (a == 0) {\n            return 0;\n        }\n\n        uint256 c = a * b;\n        require(c / a == b);\n\n        return c;\n    }\n\n    /**\n     * @dev Integer division of two numbers truncating the quotient, reverts on division by zero.\n     */\n    function div(uint256 a, uint256 b) internal pure returns (uint256) {\n        require(b > 0); // Solidity only automatically asserts when dividing by 0\n        uint256 c = a / b;\n        // assert(a == b * c + a % b); // There is no case in which this doesn't hold\n\n        return c;\n    }\n\n    /**\n     * @dev Subtracts two numbers, reverts on overflow (i.e. if subtrahend is greater than minuend).\n     */\n    function sub(uint256 a, uint256 b) internal pure returns (uint256) {\n        require(b <= a);\n        uint256 c = a - b;\n\n        return c;\n    }\n\n    /**\n     * @dev Adds two numbers, reverts on overflow.\n     */\n    function add(uint256 a, uint256 b) internal pure returns (uint256) {\n        uint256 c = a + b;\n        require(c >= a);\n\n        return c;\n    }\n\n    /**\n     * @dev Divides two numbers and returns the remainder (unsigned integer modulo),\n     * reverts when dividing by zero.\n     */\n    function mod(uint256 a, uint256 b) internal pure returns (uint256) {\n        require(b != 0);\n        return a % b;\n    }\n}\n\n\n// https://github.com/tronprotocol/tron-contracts/blob/master/contracts/tokens/TRC20/ITRC20.sol\n/**\n * @title TRC20 interface (compatible with ERC20 interface)\n * @dev see https://github.com/ethereum/EIPs/blob/master/EIPS/eip-20.md\n */\ninterface ITRC20 {\n    function totalSupply() external view returns (uint256);\n\n    function balanceOf(address who) external view returns (uint256);\n\n    function allowance(address owner, address spender)\n    external view returns (uint256);\n\n    function transfer(address to, uint256 value) external returns (bool);\n\n    function approve(address spender, uint256 value)\n    external returns (bool);\n\n    function transferFrom(address from, address to, uint256 value)\n    external returns (bool);\n\n    event Transfer(\n        address indexed from,\n        address indexed to,\n        uint256 value\n    );\n\n    event Approval(\n        address indexed owner,\n        address indexed spender,\n        uint256 value\n    );\n}\n\n\n\n\n\n\n\n// https://github.com/tronprotocol/tron-contracts/blob/master/contracts/tokens/TRC20/TRC20.sol\n\n\n/**\n * @title Standard TRC20 token (compatible with ERC20 token)\n *\n * @dev Implementation of the basic standard token.\n * https://github.com/ethereum/EIPs/blob/master/EIPS/eip-20.md\n * Originally based on code by FirstBlood: https://github.com/Firstbloodio/token/blob/master/smart_contract/FirstBloodToken.sol\n */\ncontract TRC20 is ITRC20 {\n    using SafeMath for uint256;\n\n\n    // freezing tokens...\n    mapping(address => uint) tokensFrozen;\n\n\n\n    mapping (address => uint256) private _balances;\n\n    mapping (address => mapping (address => uint256)) private _allowed;\n\n    uint256 private _totalSupply;\n\n    /**\n     * @dev Total number of tokens in existence\n     */\n    function totalSupply() public view returns (uint256) {\n        return _totalSupply;\n    }\n\n    /**\n     * @dev Gets the balance of the specified address.\n     * @param owner The address to query the balance of.\n     * @return An uint256 representing the amount owned by the passed address.\n     */\n    function balanceOf(address owner) public view returns (uint256) {\n        return _balances[owner];\n    }\n\n\n    function balanceOfFrozen(address owner) public view returns (uint256) {\n        return tokensFrozen[owner];\n    }\n\n\n    /**\n     * @dev Function to check the amount of tokens that an owner allowed to a spender.\n     * @param owner address The address which owns the funds.\n     * @param spender address The address which will spend the funds.\n     * @return A uint256 specifying the amount of tokens still available for the spender.\n     */\n    function allowance(\n        address owner,\n        address spender\n    )\n    public\n    view\n    returns (uint256)\n    {\n        if(tokensFrozen[owner] > _allowed[owner][spender]) \n            return 0;\n        else\n            return _allowed[owner][spender].sub(tokensFrozen[owner]);\n    }\n\n    /**\n     * @dev Transfer token for a specified address\n     * @param to The address to transfer to.\n     * @param value The amount to be transferred.\n     */\n    function transfer(address to, uint256 value) public returns (bool) {\n        _transfer(msg.sender, to, value);\n        return true;\n    }\n\n    /**\n     * @dev Approve the passed address to spend the specified amount of tokens on behalf of msg.sender.\n     * Beware that changing an allowance with this method brings the risk that someone may use both the old\n     * and the new allowance by unfortunate transaction ordering. One possible solution to mitigate this\n     * race condition is to first reduce the spender's allowance to 0 and set the desired value afterwards:\n     * https://github.com/ethereum/EIPs/issues/20#issuecomment-263524729\n     * @param spender The address which will spend the funds.\n     * @param value The amount of tokens to be spent.\n     */\n    function approve(address spender, uint256 value) public returns (bool) {\n        require(spender != address(0));\n\n        _allowed[msg.sender][spender] = value;\n        emit Approval(msg.sender, spender, value);\n        return true;\n    }\n\n    /**\n     * @dev Transfer tokens from one address to another\n     * @param from address The address which you want to send tokens from\n     * @param to address The address which you want to transfer to\n     * @param value uint256 the amount of tokens to be transferred\n     */\n    function transferFrom(\n        address from,\n        address to,\n        uint256 value\n    )\n    public\n    returns (bool)\n    {\n        _allowed[from][msg.sender] = _allowed[from][msg.sender].sub(value);\n        _transfer(from, to, value);\n        return true;\n    }\n\n    /**\n     * @dev Increase the amount of tokens that an owner allowed to a spender.\n     * approve should be called when allowed_[_spender] == 0. To increment\n     * allowed value is better to use this function to avoid 2 calls (and wait until\n     * the first transaction is mined)\n     * From MonolithDAO Token.sol\n     * @param spender The address which will spend the funds.\n     * @param addedValue The amount of tokens to increase the allowance by.\n     */\n    function increaseAllowance(\n        address spender,\n        uint256 addedValue\n    )\n    public\n    returns (bool)\n    {\n        require(spender != address(0));\n\n        _allowed[msg.sender][spender] = (\n        _allowed[msg.sender][spender].add(addedValue));\n        emit Approval(msg.sender, spender, _allowed[msg.sender][spender]);\n        return true;\n    }\n\n    /**\n     * @dev Decrease the amount of tokens that an owner allowed to a spender.\n     * approve should be called when allowed_[_spender] == 0. To decrement\n     * allowed value is better to use this function to avoid 2 calls (and wait until\n     * the first transaction is mined)\n     * From MonolithDAO Token.sol\n     * @param spender The address which will spend the funds.\n     * @param subtractedValue The amount of tokens to decrease the allowance by.\n     */\n    function decreaseAllowance(\n        address spender,\n        uint256 subtractedValue\n    )\n    public\n    returns (bool)\n    {\n        require(spender != address(0));\n\n        _allowed[msg.sender][spender] = (\n        _allowed[msg.sender][spender].sub(subtractedValue));\n        emit Approval(msg.sender, spender, _allowed[msg.sender][spender]);\n        return true;\n    }\n\n    /**\n     * @dev Transfer token for a specified addresses\n     * @param from The address to transfer from.\n     * @param to The address to transfer to.\n     * @param value The amount to be transferred.\n     */\n    function _transfer(address from, address to, uint256 value) internal {\n        require(to != address(0));\n\n        _balances[from] = _balances[from].sub(value);\n        _balances[to] = _balances[to].add(value);\n        emit Transfer(from, to, value);\n    }\n\n    /**\n     * @dev Internal function that mints an amount of the token and assigns it to\n     * an account. This encapsulates the modification of balances such that the\n     * proper events are emitted.\n     * @param account The account that will receive the created tokens.\n     * @param value The amount that will be created.\n     */\n    function _mint(address account, uint256 value) internal {\n        require(account != address(0));\n\n        _totalSupply = _totalSupply.add(value);\n        _balances[account] = _balances[account].add(value);\n        emit Transfer(address(0), account, value);\n    }\n\n    /**\n     * @dev Internal function that burns an amount of the token of a given\n     * account.\n     * @param account The account whose tokens will be burnt.\n     * @param value The amount that will be burnt.\n     */\n    function _burn(address account, uint256 value) internal {\n        require(account != address(0));\n\n        _totalSupply = _totalSupply.sub(value);\n        _balances[account] = _balances[account].sub(value);\n        emit Transfer(account, address(0), value);\n    }\n\n    /**\n     * @dev Internal function that burns an amount of the token of a given\n     * account, deducting from the sender's allowance for said account. Uses the\n     * internal burn function.\n     * @param account The account whose tokens will be burnt.\n     * @param value The amount that will be burnt.\n     */\n    function _burnFrom(address account, uint256 value) internal {\n        // Should https://github.com/OpenZeppelin/zeppelin-solidity/issues/707 be accepted,\n        // this function needs to emit an event with the updated approval.\n        _allowed[account][msg.sender] = _allowed[account][msg.sender].sub(\n            value);\n        _burn(account, value);\n    }\n}\n\n\ncontract TWN is TRC20 {\n    uint constant _10m = 10000000000000;\n    uint constant _1m = 1000000000000;\n\n\n    // game settings\n    uint256 public MIN_FREEZE = 1000000;\n    \n    string private _name;\n    string private _symbol;\n    uint8 private _decimals;\n    uint256 private _cap;\n\n    uint256 public tokensInPlay;\n    uint public difficultyRelease = 1;\n    uint public difficultyGroup = 1;\n\n    uint public totalFrozen;\n\n\n    address public owner;\n    address public tokenBanker; // which contract manages the tokens on behalf of TronWin\n\n\n    modifier onlyOwner() {\n        require(msg.sender == owner);\n        _;\n    }\n    \n    modifier onlyTokenBanker() {\n        require(msg.sender == tokenBanker);\n        _;\n    }\n\n    constructor () public {\n        owner = msg.sender;\n        tokenBanker = owner;\n        _name = \"TronWin.app\";\n        _symbol = \"TWN\";\n        _decimals = 6;\n        _cap = 150000000000000;\n        _mint(msg.sender,_cap);\n        release_group_price[1][1] = 440000000;\n        \n        playersWithFrozenTokensAddresses.push(address(0));\n    }\n\n    /**\n     * @return the name of the token.\n     */\n    function name() public view returns (string memory) {\n        return _name;\n    }\n\n    /**\n     * @return the symbol of the token.\n     */\n    function symbol() public view returns (string memory) {\n        return _symbol;\n    }\n\n    /**\n     * @return the number of decimals of the token.\n     */\n    function decimals() public view returns (uint8) {\n        return _decimals;\n    }\n\n\n\n\n\n\n\n\n\n    // mining difficulty price\n    mapping(uint => mapping(uint => uint)) release_group_price;\n    // [1][1] == 440\n    // [1][2] == 441\n    // [1][3] == 442\n    // etc\n\n    function getCurrentMiningDifficulty() public view returns(uint) {\n        return release_group_price[difficultyRelease][difficultyGroup];\n    }\n\n\n\n    \n    function debug_testDificulty(uint256 tokens) public view returns(uint _difficultyRelease, uint _difficultyGroup) {\n        _difficultyRelease = uint(  tokens / _10m) + 1; // working\n        if(_difficultyRelease > 1){\n            _difficultyGroup = tokens.sub(_difficultyRelease.sub(1).mul(_10m)).div(_1m) + 1; // correct\n        } else\n            _difficultyGroup = tokens.div(_1m) + 1; // correct\n    }\n\n\n    // calculate new TWin tokens due to the player...\n    // This contract is the owner of all unassigned tokens\n    // e.g. spent 1 trx (1000000) =\n    // 1000000 / 440000000 = 2272 TWin = 0.002272 TWin\n\n    // player [to] mines [value] tokens...\n    // tokenBanker has to own the tokens first\n    function initTransfer(address to, uint256 valueSpent) external onlyTokenBanker() returns (bool) {\n        uint value = valueSpent.mul(1000000).div(getCurrentMiningDifficulty());\n\n        tokensInPlay = tokensInPlay.add(value);\n        \n        difficultyRelease = uint(  tokensInPlay / _10m) + 1; // working\n        if(difficultyRelease > 1){\n            difficultyGroup = tokensInPlay.sub(difficultyRelease.sub(1).mul(_10m)).div(_1m) + 1; // correct\n        } else\n            difficultyGroup = tokensInPlay.div(_1m) + 1; // correct\n            \n        _transfer(msg.sender, to,value);\n        return true;\n    }\n    function debug_processPlayerPlay(uint _amnt) public view returns (uint _tokens) {\n        uint _currentMiningDifficulty = getCurrentMiningDifficulty();\n        _tokens = _amnt.mul(1000000).div(_currentMiningDifficulty);\n\n    } \n\n\n\n\n    struct tokensToUnfreeze {\n        address     playerAddress;\n        uint256     amnt;\n        uint256     startTS;\n    }\n    tokensToUnfreeze[]  pendingUnfreezes;\n\n\n    \n    address[] playersWithFrozenTokensAddresses;\n    mapping(address => uint) public playersWithFrozenTokens;\n    \n    function playersWithFrozenTokensLen() public view returns(uint) {\n        return playersWithFrozenTokensAddresses.length;\n    }\n    function tokensFrozenByplayersWithFrozenTokensAddressesPos(uint256 _c) public view returns(uint _amnt, address _player) {\n        _player = playersWithFrozenTokensAddresses[_c];\n        _amnt = tokensFrozen[_player];\n    }\n\n    function freeze(uint _amnt) public {\n        require(_amnt >= MIN_FREEZE);\n\n        uint _balance = balanceOf(msg.sender);\n        require(_balance > _amnt.add(tokensFrozen[msg.sender]), \"Not enough tokens!\");\n\n        tokensFrozen[msg.sender] = tokensFrozen[msg.sender].add(_amnt);\n\n        totalFrozen = totalFrozen.add(_amnt);\n\n        if(playersWithFrozenTokens[msg.sender] == 0){\n            playersWithFrozenTokensAddresses.push(msg.sender);\n            playersWithFrozenTokens[msg.sender] = playersWithFrozenTokensAddresses.length-1;\n        }\n    }\n\n    function unfreeze(uint _amnt) public {\n\n        require(tokensFrozen[msg.sender] >= _amnt, \"Not enough tokens frozen!\");\n        pendingUnfreezes.push(tokensToUnfreeze(msg.sender, _amnt, now));\n    }\n\n\n    function pendingUnfreezesLen() public view returns (uint) {\n        return pendingUnfreezes.length;\n    }\n    function getPendingUnfreezesAtPos(uint _pos) public view onlyOwner() returns(address _player, uint _amnt, uint _startTS)  {\n        _player = pendingUnfreezes[_pos].playerAddress;\n        _amnt = pendingUnfreezes[_pos].amnt;\n        _startTS = pendingUnfreezes[_pos].startTS;\n    }\n    function pendingUnfreezesAtPos(uint _pos) public onlyOwner() returns(address _player, uint _amnt, uint _startTS)  {\n        _player = pendingUnfreezes[_pos].playerAddress;\n        _amnt = pendingUnfreezes[_pos].amnt;\n        tokensFrozen[_player] = tokensFrozen[_player].sub(_amnt); // free up the tokens\n        totalFrozen = totalFrozen.sub(_amnt);\n\n        _startTS = pendingUnfreezes[_pos].startTS;\n        delete pendingUnfreezes[pendingUnfreezes.length-1];\n        pendingUnfreezes.length--;\n        if(tokensFrozen[_player] == 0){\n            delete playersWithFrozenTokensAddresses[playersWithFrozenTokens[_player]];\n            delete playersWithFrozenTokens[_player];\n        }\n    }\n\n\n    // allow burning\n\n    /**\n     * @dev Burns a specific amount of tokens.\n     * @param value The amount of token to be burned.\n     */\n    function burn(uint256 value) public {\n        require(value <= balanceOf(msg.sender).sub(tokensFrozen[msg.sender]), \"Too many tokens frozen to complete burn!\");\n        _burn(msg.sender, value);\n    }\n\n    /**\n     * @dev Burns a specific amount of tokens from the target address and decrements allowance\n     * @param from address The address which you want to send tokens from\n     * @param value uint256 The amount of token to be burned\n     */\n    function burnFrom(address from, uint256 value) public {\n        require(value <= balanceOf(from).sub(tokensFrozen[from]), \"Too many tokens frozen to complete burn!\");\n        _burnFrom(from, value);\n    }\n\n\n    /// token freezing overrides...\n\n    function transfer(address to, uint256 value) public returns (bool) {\n        require(value <= balanceOf(msg.sender).sub(tokensFrozen[msg.sender]), \"Too many tokens frozen to complete transfer!\");\n        super.transfer(to, value);\n    }\n\n    function approve(address spender, uint256 value) public returns (bool) {\n        require(value <= balanceOf(spender).sub(tokensFrozen[spender]), \"Too many tokens frozen to complete this approval!\");\n        super.approve(spender, value);\n    }\n\n    function increaseAllowance(address spender, uint256 addedValue)   public returns (bool)\n    {\n        require(addedValue.add(allowance(msg.sender,spender)) <= balanceOf(msg.sender).sub(tokensFrozen[msg.sender]), \"Too many tokens frozen to complete this approval!\");\n        super.increaseAllowance(spender, addedValue);\n    }\n    function transferFrom(address from, address to, uint256 value) public returns (bool) {\n        require(value <= balanceOf(from).sub(tokensFrozen[from]), \"Too many tokens frozen to complete transfer!\");\n        super.transferFrom(from, to, value);\n    }\n\n\n    function updateTokenBanker(address _addr) public onlyOwner {\n        tokenBanker = _addr;\n    }\n\n\n}",
  "sourcePath": "/Volumes/GoogleDrive/My Drive/my stuff/df/tron/tronwinP3T/contracts/project/contracts/TronWinToken.sol",
  "compiler": {
    "name": "solc",
    "version": "0.4.25+commit.69a1e720.Emscripten.clang"
  },
  "schemaVersion": "2.0.1",
  "updatedAt": "2019-07-09T08:58:44.434Z"
}